:1000000000200020F9000000011B0000B91A0000C8
:10001000B91A0000B91A0000B91A0000B91A000094
:10002000B91A0000B91A0000B91A0000011B00003B
:10003000011B0000B91A0000212F0000253000002C
:10004000011B0000011B0000011B0000011B000040
:10005000011B0000011B0000011B0000011B000030
:10006000011B0000011B0000011B0000011B000020
:10007000011B0000011B0000011B0000011B000010
:100080004D310000011B000079320000011B00000F
:100090004D330000011B0000011B0000011B00008C
:1000A000011B0000AD140000011B0000011B00003B
:1000B000011B0000011B0000011B0000011B0000D0
:1000C000011B0000011B0000011B0000A91F000014
:1000D000011B0000011B0000011B0000011B0000B0
:1000E000011B0000011B0000011B0000011B0000A0
:1000F000011B0000011B0000554B4CF2205210B5B3
:100100001A804DF628121A8000BF00BF01F0FCFCD7
:10011000504B514A1A60514A5A60514A136813F4BD
:10012000807304D14F490B604FF4A85313604E4BBA
:100130001A78110703D51A7842F008021A704B4B4F
:100140004B492A221A704B4A4B4B8B4204D252F82D
:10015000040F43F8040BF8E7484B494900228B424F
:1001600002D243F8042BFAE74649474A002352F8E3
:10017000230041F8230001333E2BF8D1434B444A7E
:10018000802103F8011B9342FBD1424B3D4A1A6088
:10019000414B8A221A70A3F5805324225A70A02260
:1001A0001A709A799207FCD59A79D406FCD43B4A06
:1001B000937903F00C03082B384BF9D103221A7101
:1001C00040225A719A799006FCD5344A9179334B82
:1001D0004906FBD5324A3349116002215160202281
:1001E0001A709A7902F00C020C2AFAD12E4B2F4A7F
:1001F0001A602F4B4BF67F321A6000225A6007229A
:1002000043F8042C2B4AC3F80C2D62B601F098FD7C
:10021000144B1B68DA0705D5274801F017FD274B5B
:10022000274A1A60274B1B785B0609D5234C244BC1
:1002300022689A4204D1204801F008FD002323607F
:1002400003F0AEFD01F066FC01F094FBFEE700BF99
:100250000E20054038800440823F04000100002B3E
:1002600010D0034014D0034002D0074000E0074004
:10027000B8EFFF1FA087000058E5FF1FB8EFFF1F72
:10028000F0F4FF1F00E1FF1F0000000000E400E0A9
:100290002EE400E008ED00E000500640004006407B
:1002A000448004400000131104800440C010050085
:1002B00014E000E0000020209AA0055C1CE0034050
:1002C000A5C3945A00F00740FFFFFFFFFFFFFFFFA9
:1002D000FFFFFFFFFFFFFFFFFFFFFFFFFFFFFFFF2E
:1002E000FFFFFFFFFFFFFFFFFFFFFFFFFFFFFFFF1E
:1002F000FFFFFFFFFFFFFFFFFFFFFFFFFFFFFFFF0E
:10030000FFFFFFFFFFFFFFFFFFFFFFFFFFFFFFFFFD
:10031000FFFFFFFFFFFFFFFFFFFFFFFFFFFFFFFFED
:10032000FFFFFFFFFFFFFFFFFFFFFFFFFFFFFFFFDD
:10033000FFFFFFFFFFFFFFFFFFFFFFFFFFFFFFFFCD
:10034000FFFFFFFFFFFFFFFFFFFFFFFFFFFFFFFFBD
:10035000FFFFFFFFFFFFFFFFFFFFFFFFFFFFFFFFAD
:10036000FFFFFFFFFFFFFFFFFFFFFFFFFFFFFFFF9D
:10037000FFFFFFFFFFFFFFFFFFFFFFFFFFFFFFFF8D
:10038000FFFFFFFFFFFFFFFFFFFFFFFFFFFFFFFF7D
:10039000FFFFFFFFFFFFFFFFFFFFFFFFFFFFFFFF6D
:1003A000FFFFFFFFFFFFFFFFFFFFFFFFFFFFFFFF5D
:1003B000FFFFFFFFFFFFFFFFFFFFFFFFFFFFFFFF4D
:1003C000FFFFFFFFFFFFFFFFFFFFFFFFFFFFFFFF3D
:1003D000FFFFFFFFFFFFFFFFFFFFFFFFFFFFFFFF2D
:1003E000FFFFFFFFFFFFFFFFFFFFFFFFFFFFFFFF1D
:1003F000FFFFFFFFFFFFFFFFFFFFFFFFFFFFFFFF0D
:10040000FFFFFFFFFFFFFFFFFFFFFFFFDEF9FFFF23
:1004100010B5054C237833B9044B13B10448AFF33E
:1004200000800123237010BDB8EFFF1F0000000003
:100430009C870000084B10B51BB108490848AFF372
:1004400000800848036803B910BD074B002BFBD0A0
:10045000BDE81040184700BF00000000BCEFFF1FC0
:100460009C870000B8EFFF1F000000000346002239
:1004700010B4441C0121C3F83001C0F8344180F8A5
:10048000202180F83821C0F82C2180F8212180F823
:10049000222180F8232180F8242180F8252180F86A
:1004A000282180F8292180F8261180F8271110BC16
:1004B000704700BF90F8213163B121F02002413A2A
:1004C000192A05D9A1F13003092B8CBF0023012380
:1004D0001846704790F822315BB9A1F14103192BFE
:1004E0000ED9A1F16103192B8CBF002301231846FB
:1004F0007047A1F19C03B3FA83F35B091846704778
:1005000001231846704700BF70B40578ADB1411C97
:100510000123002605E05E2C11D90133DBB29D4298
:100520000BD311F8012B0D2AA2F12004F3D10133D2
:10053000DBB29D42C0F82C61F3D270BC7047D0F89A
:100540002C21462ADCBF0132C0F82C21E5E700BF90
:1005500030B590F8243183B00D4673B1041D02A963
:10056000002341F8043D0A22204604F067FB019B6A
:100570009C4208BF284603B030BD90F823310BB130
:10058000C41CECE7841CEAE7C3789C2B32D090F8BB
:10059000381179B30139C9B2C21C013130B51144E7
:1005A00001250024413B212B14D8DFE803F01D2056
:1005B000131313131313131313131313131313130B
:1005C00013131313131313131313131313131A11F6
:1005D00080F8274112F8013F9C2B01D09142E1D1D4
:1005E00030BD80F82641F5E780F82651F2E780F823
:1005F0002751EFE7704700BF00291FDB4729D0F8DC
:100600002C21A8BF472191421DD00BDC0131CAB279
:10061000431C0270C0F83001C0F834310A49184652
:1006200004F03CBA891ACAB2431C0270C0F8300107
:10063000C0F834310549184604F030BAD0F82C21FE
:1006400000219142E1D1704700820000B481000096
:1006500030B4134BC0F830010122451C0224198824
:10066000C0F8345100230470A0F8011080F8203144
:1006700080F83831C0F82C3180F8213180F82231EF
:1006800080F8233180F8243180F8253180F8293131
:1006900080F8262180F8272180F8282130BC704777
:1006A0004C830000D0F83C01704700BF062938B5E4
:1006B0000CD00F2906D0052900D038BD0B4BC0F84F
:1006C0003C3138BD0A4BC0F83C3138BD044600F51A
:1006D00080752846D4F82C31064A202104F01AF9F6
:1006E0001F2898BFC4F83C5138BD00BF5482000099
:1006F0005C8200006482000090F82121002138B55E
:100700000346C0F83C117AB1D0F834211278373A58
:100710000D2A08D8DFE802F09FA40707070707079C
:10072000070707AAB49838BD90F82221002A40F0A4
:10073000878090F82321002AF5D090F824310446D0
:10074000002B61D1D0F834311B78433B2B2BEAD8F6
:1007500001A252F823F000BFE70800000F090000D3
:100760002707000027070000FD08000027070000FA
:1007700027070000270700002707000027070000C1
:1007800027070000270700002707000027070000B1
:1007900027070000270700002707000027070000A1
:1007A0002707000027070000270700002707000091
:1007B0002707000027070000270700002707000081
:1007C0002707000027070000270700002707000071
:1007D0002707000027070000D308000027070000B4
:1007E0002707000027070000270700002707000051
:1007F0002707000027070000270700002707000041
:10080000270700008F080000D0F834311B78683BC0
:10081000082B88D801A252F823F000BFB7080000C7
:10082000270700002707000027070000A308000093
:10083000270700008F08000027070000CB080000F2
:10084000BDE83840FFF7A0BED0F82C11BDE8384015
:100850000139FFF7D1BED0F82C2180F8392138BDFD
:1008600090F83911BDE83840FFF7C6BE01210A22D1
:10087000013019705A70C3F83031C3F8340138BDF3
:10088000D0F82C11BDE838400131FFF7B5BE00218A
:100890002046FFF75DFE01462046BDE83840FFF7E1
:1008A00005BF0021FFF754FE07287FF43CAF00236B
:1008B00084F8253138BD0021FFF74AFE07287FF470
:1008C00032AF012384F8253138BDBDE83840FFF749
:1008D000BFBE0021FFF73CFE00287FF424AF114B80
:1008E000C4F83C3138BD0121D0F82C51FFF730FE5F
:1008F00029182046BDE83840FFF77EBE0021FFF7EB
:1009000027FE01462046BDE83840FFF775BE0121AD
:10091000D0F82C51FFF71CFE291A2046BDE83840BC
:10092000FFF76ABE4C820000D0F83431F0B5197080
:10093000D0F8343100225A7090F8203183B0044648
:100940000D46002B42D0012B1DD08BB9D4F830318D
:1009500094F825210133C4F834311AB1D4F82C317C
:10096000472B5AD02046FFF7CFFD204603B0F0BDFD
:10097000D4F8343101332046C4F83431FFF7C4FDD4
:10098000204603B0F0BD90F83831D0F83061013323
:10099000DBB2A3F10107B7FA87F77F0980F8383196
:1009A00080F821713270FFF785FD38B3002384F899
:1009B00020312046FFF7A0FE94F83831012B3FD0BC
:1009C00094F82321FAB994F82031BEE7D0F8301119
:1009D00001221B2D0A70F6D1D0F8301180F82021A9
:1009E00080F8383180F8213180F8223180F82331C5
:1009F00080F824310B7090F82031A6E794F8383154
:100A00001E2BD3D8DAE7022BDDD13F2DDBD101221B
:100A100094F8203184F8242197E7601C03220D26E6
:100A20000A23C4F83041C4F83401227001A98DF8BA
:100A300006508DF804608DF8053004F02FF891E72A
:100A40005F2D06D05B2DBED184F8233194F8203180
:100A50007BE784F82231B6E710B5034B0360044608
:100A600000F0AAFB204610BD6C8300002DE9F84F72
:100A70000B2001F003F9DFF8C8B02C4EDFF8C4A05A
:100A8000DFF8C490DFF8C480294D2A4F2A4CB0FA11
:100A900080F35B0902208BF8003001F0EFF8B0FA28
:100AA00080F35B090320337001F0E8F8B0FA80F3BB
:100AB0005B0904208AF8003001F0E0F8B0FA80F316
:100AC0005B09052089F8003001F0D8F8B0FA80F30E
:100AD0005B09082088F8003001F0D0F8B0FA80F304
:100AE0005B0909202B7001F0C9F8B0FA80F35B09AB
:100AF0000A203B7001F0C2F8B0FA80F35B090720CE
:100B0000237001F0BBF80D49002301228BF800305F
:100B10008AF8003089F8003088F800303B70327075
:100B20002A7022700B70BDE8F88F00BFD4EFFF1F52
:100B300038F1FF1F41F1FF1F40F1FF1FD5EFFF1FED
:100B400039F1FF1F4CF1FF1F42F1FF1FECEFFF1FB8
:100B500070B5022182B0084601F09EF80221032000
:100B600001F09AF80221042001F096F802210520F4
:100B700001F092F80221082001F08EF802210920EC
:100B800001F08AF802210A2001F086F802210720EC
:100B900001F082F802210B2001F07EF802210C20E6
:100BA00001F07AF801210D2001F076F80D480E4E83
:100BB0000E4D0F4C00F0C2FB0E4B0F481A6801920D
:100BC000019A1B680093009BA3F59C530021C83A2F
:100BD000083B32602B6021700170FFF747FF02B0C5
:100BE00070BD00BF30990600F0EFFF1FD8EFFF1F68
:100BF0004DF1FF1F00F2FF1FEDEFFF1F70B50D4E0F
:100C00000546E8B200F010FB00F072FB0446002835
:100C1000FAD1012001F046F8337853B10D2D03D0FD
:100C20000A2D06D12546ECE72046FFF7E7FF2546CB
:100C3000E7E770BD40F1FF1F10B5044603E014F86C
:100C4000010BFFF7DBFF204603F0BAFE0028F6D1C8
:100C500010BD00BF2DE9F843224B1B780746002B3F
:100C600039D1DFF88C90DFF88C8099F8003043BBE5
:100C7000F9B21D48FFF758FE0678451C01243EB125
:100C8000013415F8010BE4B2FFF7B8FFA642F7D222
:100C90001548FFF707FD044628B103F091FE014611
:100CA000204601F0CDFF104B104A93F8261193F81F
:100CB000273189F800101370C8F800703846BDE875
:100CC000F8830A28D4D1D8F800300D2BD0D00D20CD
:100CD000FFF794FFCCE7DFF81C803846C8F80070B7
:100CE000BDE8F883D5EFFF1FF8EFFF1F40F1FF1FAE
:100CF00038F1FF1F3CF1FF1FF8B53C4B1B78044651
:100D000003BB3B4B1B7800F07F0433BB2546394BBC
:100D10001B781BB15E2C2BD05F2C3ED0364B1B7842
:100D200023B3364F3B78FBB1A5F14103192B2A467B
:100D30002DD8334E20350023002D3B70346006D172
:100D40002846F8BD2E4E0546002D3460F8D0F7DD5C
:100D5000E8B201F0F9FF2846F8BDA4F14103192BD0
:100D6000D4D804F12005D2E75C2C2BD0244EEBE73D
:100D7000E22001F0E9FF862001F0E6FF1E4B1B7820
:100D800063B31E4F3B789025002BEFD02A46613A83
:100D9000192A0FD8203D1A4ECDE7E22001F0D4FFEA
:100DA000862001F0D1FF144B1B7893B1134F3B7891
:100DB000C3B19125124E30680028BCDDC0B201F0ED
:100DC000C3FFB8E70E4A012314603B704FF0FF35B4
:100DD000B6E70B4B91251C602846BAE7084B9025D7
:100DE0001C60B5E7064B91251C60B1E7ECEFFF1FD7
:100DF000D4EFFF1F42F1FF1F4CF1FF1F3AF1FF1F1D
:100E000048F1FF1FF8B5FFF731FE5149514A524BE7
:100E10000F78524811781A78514B0678514C1B784C
:100E200051482578514C01EB470101EB820202EB5E
:100E3000061202EB4313026803EB8513934223600F
:100E40000CD04B4A0360012313604A48FFF7F4FEBD
:100E50004FF4FA70BDE8F84000F024BF444C036042
:100E600023685A1C2260042B66D801A252F823F092
:100E70004B0E0000970E0000850E0000E50E0000EE
:100E8000A90E00003C48FFF7D7FE4FF4FA70BDE80A
:100E9000F84000F007BF3948FFF7CEFE4FF4FA7074
:100EA000BDE8F84000F0FEBE06242720FFF7A6FEAE
:100EB0005F20FFF7A3FE5720FFF7A0FE2F20FFF7CC
:100EC0009DFE5720FFF79AFE5F20FFF797FE2C4804
:100ED000FFF7B2FE013CE8D14FF4FA70BDE8F840EC
:100EE00000F0E0BE274E4725002401342020FFF704
:100EF00085FEA542F9D12A20FFF780FE0D20FFF7DD
:100F00007DFE86FB0530EB17C3EBA00000EB8000F5
:100F1000A5EB40003030FFF771FE0D20FFF76EFEAD
:100F2000013D0A20FFF76AFE0A2DDDD14FF4FA7069
:100F3000BDE8F84000F0B6BE1348FFF77DFE002381
:100F400023604FF4FA70BDE8F84000F0ABBE00BF7C
:100F50004CF1FF1FD4EFFF1F42F1FF1F38F1FF1FBD
:100F600041F1FF1F40F1FF1F5CE5FF1F44F1FF1F30
:100F7000F4EFFF1F7482000004830000B8820000B9
:100F80004C830000676666665083000030B53A4BBC
:100F90001B7887B0002B3ED101F044FE002840DDD5
:100FA000364C01F01BFEFFF755FE23680093344BCF
:100FB000009A1A6000F070FA01460D2000F058FE09
:100FC00000F06AFA08B32F4B1A78002A3AD0236847
:100FD0002D4D0393039A2B68D21AFA2A08D92B4A6B
:100FE000117829B901230320137001F0ADFE2B689D
:100FF00022680492049A41F28831D31A8B4208D9AC
:10100000234B244A1A6007B030BD1E4A1F4B107094
:10101000187007B030BDFFF7F5FE01F003FE0028A1
:10102000BEDC1D4800F0A6F8002814DD1A48134C59
:1010300000F06AF8FFF760FE23680193104B019AF5
:101040001A60B7E7226805920F4A059911600122DC
:101050001A7007B030BD094C094A23680293029BFD
:1010600012689B1AC82B02D900F056F9A2E700209B
:10107000FFF7C4FD9EE700BF39F1FF1F00F2FF1F1D
:10108000F0EFFF1F4DF1FF1FD8EFFF1FEDEFFF1F28
:101090000CED00E00400FA05DCEFFF1F10B50E4C6C
:1010A000012382B01A461946204600F073F8204604
:1010B0000A4A0B4902F062FE0A4B0B491A68009279
:1010C000009C1B680193094B019A09480C601A6047
:1010D000FFF7CCF902B010BDDCEFFF1F58E5FF1F92
:1010E000590A000000F2FF1FF0EFFF1FD8EFFF1FAB
:1010F000F8EFFF1F00207047024A1378002BFCD145
:10110000704700BF5BF1FF1F0A4B0B4A1978137839
:10111000DBB299420BD00133DBB24F2B8CBF0021E5
:101120001946064888BF0B46405C137070474FF065
:10113000FF30704764F1FF1F5AF1FF1FACF1FF1F32
:10114000094A0A4B12781B78DBB29A4208D0013365
:10115000DBB24F2B88BF0023054AD05CC0B270477A
:101160004FF0FF30704700BF64F1FF1F5AF1FF1FBF
:10117000ACF1FF1F054A064B10781B78C0B2DBB2FA
:10118000984238BF5030C01A704700BF64F1FF1F4B
:101190005AF1FF1F30B4064C064901604FF47A75CE
:1011A0000021856023700171017330BC704700BF5E
:1011B00057F1FF1F6C830000124813490368134A5C
:1011C00023F0400370B403600B68114E114D124CB4
:1011D00023F0400340F203100B6030602B78DBB249
:1011E00023701378002BFCD10C4A0D4C13680D4969
:1011F0004FF4A27523F0400340201360256008607F
:1012000070BC70470C800340348003405BF1FF1FCB
:1012100014C004405AF1FF1F64F1FF1F3C800340DB
:1012200018C00440C4F00F4070B4234C2349227806
:101230000132D2B2442A28BF00220B789342FCD05C
:10124000EFF31083002B0CBF8025002572B61C49DC
:101250000B7803F0FF0633B11A4B985422700DBB84
:1012600072B670BC7047184A184C1070184B267034
:1012700001220A701A681749174842F040021A60A2
:101280000A7840F2444404607AB91A6802F0C30252
:1012900042F018021A60114B114A1B681033136098
:1012A000002DDDD062B670BC70471A6802F0C30230
:1012B00042F01C021A60EEE763F1FF1FFCF1FF1F12
:1012C0005BF1FF1F68F1FF1F56F1FF1F62F1FF1F67
:1012D0003C80034057F1FF1F18C0044004800340C6
:1012E0004080034008B50846FFF79EFF012008BD77
:1012F000064B1B783BB9064A064B1B781078181A28
:1013000018BF012070470120704700BF5BF1FF1F2D
:10131000FCF1FF1F63F1FF1F064A137803F0FF0182
:10132000002BFAD1044B1B7803B90121152000F0E2
:101330009FBC00BF5BF1FF1F57F1FF1FB0F5C35FFC
:10134000F8B54CD8414BDFF848E1414E414F424D92
:10135000424C434900221A60CEF800204FF6FF723B
:10136000326008221A604FF0400E302618224FF0EB
:101370000073C7F800E02E7022600B6082B200EBB1
:1013800080033849384F394E394D0A80540000EBFC
:10139000C30022448308022114203A802B80348029
:1013A00000F07AFC0121152000F076FC314C324F20
:1013B000324E334DFFF7B0FF3249DFF8D8E0324804
:1013C000324A00238EF8003023700B70482440F21C
:1013D00003413B7033702B7004601160F8BDC3088B
:1013E000B3F5C35F1DD8194ADFF8A4C0DFF860E089
:1013F000184F194E194D1A4C002118464FF6FF731D
:101400001160CCF80010CEF800300B2140231160A1
:101410003B60302118224FF0007331702A60236046
:10142000ACE7C009B0F5C35FD8D8084BDFF860E07F
:10143000074E084F084D094C094900221A60CEF8A2
:1014400000204FF6FF7232600F228BE700800340CE
:1014500008800340C4F00F4019E400E00C80034012
:1014600000E100E054F1FF1F60F1FF1F5CF1FF1F7E
:1014700052F1FF1F59F1FF1F5BF1FF1F63F1FF1FC7
:10148000FCF1FF1F5AF1FF1F3480034014C00440D9
:101490000480034064F1FF1F034B1878A0F1FF00A4
:1014A000B0FA80F04009704759F1FF1F2DE9F04F65
:1014B000A44B196800221A60CA0785B003D5443BC3
:1014C0001A68570641D48D0668D44A063AD59E4814
:1014D00003685B0636D59D4E9D4A33789D4F126852
:1014E0003978DBB2092B92B200F2E6819A48DFF834
:1014F000B4E205889EF8004002E00A2B00F0ED807F
:10150000092B14BF01F0010001202A440133A0423D
:1015100092B2DBB24FEA5101EFD0904C8A4D247861
:10152000002800F0D080002C40F0D0802C6804F01F
:10153000C30444F01C042C60854C22608EF800002B
:101540003970337005B0BDE8F08F1A68824C84485A
:101550002488844F844D854E2D8822F040021A60E5
:101560000368328803F0C30343F0040303603B685D
:101570005B1B9BB29A422BD8E443A4B29C4227D374
:101580007B4B7C4CFF221A700368012503F0C303D8
:10159000257043F008038D06036096D5714BDFF884
:1015A00008921A6899F80030029392B2002B00F06A
:1015B00086806B486E4B01931C46036803F0C3039F
:1015C00043F0040303600020237889F8000048E01A
:1015D000674BDFF8D49101931B7899F80000654AB6
:1015E0000024082B80F0800014700CD8624A03920B
:1015F000127840B20133DBB240EA5202092BD2B278
:10160000F8D1039B1A705D4A5D4813780078013366
:10161000DBB2502B28BF0023984204D0564C5948C7
:101620002478C4541370019A4D4800231370026843
:1016300002F0C30242F004028E06026089F8003014
:101640007FF543AF474A126892B2454C206800F0DC
:10165000C30040F00800206080250020029089F837
:101660000050FF2B00F0D680002B40F09F804648B2
:10167000404C2370036823F040030360029B002B5F
:101680007FF423AF0468414B24061B8848BF18240D
:10169000134448BF04603E489BB2036004689C4208
:1016A000FBD12D4B384C1B882F4803EB53031A44B6
:1016B000582525600280019A0123137005E72C4B01
:1016C00001931B78C1E7002C7FF430AF2C6804F045
:1016D000C30444F018042C602EE72E492E4C0878E1
:1016E0002178C9B2884200F0FF800131C9B2432994
:1016F00086BF002001460846284D2170295C3970BC
:101700001148164C00218EF80010016801F0C30149
:1017100041F0180101602178002974D0016801F0BE
:10172000C30141F01C0101600A2B00F0BF801C4B7B
:10173000074A1B68103313600123337005B0BDE8FE
:10174000F08F00BF508003403C8003405BF1FF1FDF
:101750004080034056F1FF1F54F1FF1F57F1FF1F58
:1017600034800340388003404EF1FF1F60F1FF1FBB
:1017700059F1FF1F5EF1FF1F58F1FF1F64F1FF1FBA
:101780005AF1FF1FACF1FF1F0C80034052F1FF1F05
:101790001080034063F1FF1FFCF1FF1F68F1FF1F82
:1017A0000480034062F1FF1F50F1FF1F554C564863
:1017B00024880088554D0395121A6FEA040899F998
:1017C00000B02D7892B21FFA88F84FF0000A08E0B6
:1017D0005FFA8CF3082B5FFA8EF5B8B24FF0010A6E
:1017E0002CD8161B424503F1010C4BEA550E04EBB5
:1017F0000007B2B2ECD9BAF1000F7DD1424A108095
:10180000019A137061E6016801F0C30141F018010B
:10181000016089E73E4B3F4C3F4800221A70236825
:1018200023F040032360019B1A70036803F0C30395
:1018300043F00403036089F8002046E6039B354C1F
:101840001D702368354A364E23F040032360137819
:1018500034785344DBB2502B28BF00239C4202D083
:10186000304CE5541370029B9BB92A4A264C2E4BF0
:1018700020801B8814680344200644BF1820106091
:101880002A4A9BB2136010689842FBD1214B582220
:101890001A602148036803F0C30343F004030360A4
:1018A000019B002289F800201A700EE6204B214986
:1018B0001B881A440A603FE71F49204C0D782178A5
:1018C000C9B28D421BD10A2B0ED0002202600368E0
:1018D0001B4D1C4923F040034FF4A27740240360C2
:1018E0002F600C6032702DE6114B12491B880B20C3
:1018F0001A4430700A6025E6039A15707EE7DFF817
:1019000048E0F2E654F1FF1F4EF1FF1F58F1FF1FB0
:101910005EF1FF1F0C8003403480034064F1FF1F21
:101920005AF1FF1FACF1FF1F60F1FF1F1080034051
:101930005CF1FF1F4080034063F1FF1FFCF1FF1FBC
:1019400018C00440C4F00F4062F1FF1FF8B572B137
:1019500006460F4614460025336817F8011B1B681E
:1019600030469847013C0544F6D12846F8BD154657
:10197000FBE700BF08B5FFF7EBF8FFF707FB01F047
:1019800013FAFAE7844641EA000313F003036DD12A
:10199000403A41D351F8043B40F8043B51F8043B32
:1019A00040F8043B51F8043B40F8043B51F8043B39
:1019B00040F8043B51F8043B40F8043B51F8043B29
:1019C00040F8043B51F8043B40F8043B51F8043B19
:1019D00040F8043B51F8043B40F8043B51F8043B09
:1019E00040F8043B51F8043B40F8043B51F8043BF9
:1019F00040F8043B51F8043B40F8043B51F8043BE9
:101A000040F8043B51F8043B40F8043B51F8043BD8
:101A100040F8043B403ABDD2303211D351F8043B78
:101A200040F8043B51F8043B40F8043B51F8043BB8
:101A300040F8043B51F8043B40F8043B103AEDD227
:101A40000C3205D351F8043B40F8043B043AF9D278
:101A5000043208D0D2071CBF11F8013B00F8013B4B
:101A600001D30B8803806046704700BF082A13D358
:101A70008B078DD010F003038AD0C3F10403D21A70
:101A8000DB071CBF11F8013B00F8013B80D331F8A4
:101A9000023B20F8023B7BE7043AD9D3013A11F824
:101AA000013B00F8013BF9D20B7803704B7843708F
:101AB0008B7883706046704708B5104C08E0236847
:101AC00059050DD423681A050FD42368DB0411D4FB
:101AD00023685803F3D500F067FA23685905F1D558
:101AE00001F034FB23681A05EFD501F0C5FB23682C
:101AF000DB04EDD501F02AFCEAE700BF34800440A6
:101B000008B5FFF7D9FF00BF014B10221A807047BC
:101B100000200540704700BF094908B50B6830B187
:101B20006A461844A2F58062904202D208601846C4
:101B300008BD02F02FF90C2303604FF0FF3008BD01
:101B400060E5FF1FF0B44D1E2E46002400E0013476
:101B5000B0FBF2F302FB1300092800F130078ABF43
:101B60003730F8B2C0B206F8010F1846002BEED19C
:101B70000A1953704CB1107815F8016F28700133B1
:101B8000E01A834202F80169F5DB0846F0BC7047B1
:101B900010B40F4B53F8302092F880422CB101233F
:101BA00069B182F8803010BC704703EBC0035B68FA
:101BB0001A6841B922F002021A6010BC704782F81C
:101BC000003110BC704742F003021A6010BC70472D
:101BD000888300001C4A02EBC00301295B6811D016
:101BE00004291BD052F83000002280F8802229B14D
:101BF000022920D0032922D01A6070474FF4807246
:101C00001A60704752F830004FF4A27280F88012C8
:101C10001A601A6822F020021A60704752F83010D9
:101C20004FF4A272012081F880021A601A6842F013
:101C300020021A60704740F203121A6070474FF496
:101C400081721A60704700BF8883000030B4054B72
:101C5000054D064C002210211A602A602060196090
:101C600030BC704714D0034004D0034000D0034080
:101C7000212801D8FFF78CBF704700BF212806D864
:101C8000044B53F8303093F80002C0B27047002084
:101C9000704700BF88830000212801D8FFF79ABF52
:101CA000704700BF2DE9F843054672B6204F214B1F
:101CB000214A1B683C68126862B6520102D5322B79
:101CC00088BF013495B3C3F53B431C4EDFF86490E5
:101CD000DFF864807F334FF47A72A6FB031302FBB4
:101CE00004F404EB531472B6D9F800103A68D8F82B
:101CF00000E062B6C1F53B437F33A6FB03031EF051
:101D0000806FC4EB53134FF47A7002D0322988BF2E
:101D1000013200FB0233B3F57A7F04D3013D05D0D5
:101D200004F57A74DFE701F03FF8DCE7BDE8F883FB
:101D300000F2FF1F18E000E004ED00E0ABAAAAAA41
:101D4000F8B5224B2249DFF8A4E0DFF8A4C0214D0A
:101D5000214C224A224F234E4FF4807018604FF4DA
:101D6000007018604FF4806018604FF400601860D5
:101D70004FF4805018600020086028234BF6FF7154
:101D8000CCF80010CEF800302B60136023603B606D
:101D90003360AB629362092244F8242CC7F8D80F51
:101DA00004F57F641048C6F8D41FC5F8F83F2360D7
:101DB000026001F045F91920FFF774FF00F05CFEA6
:101DC00040F21310BDE8F840FFF76CBF04E100E0FB
:101DD0000480034014800340248003401C8003409F
:101DE0002C80034034800340009003400C8003406B
:101DF00008800340431E032B14D872B60A4951F8D9
:101E0000230068B170B4094C058834F81320466883
:101E100041F82360521B24F8132062B670BC70474F
:101E200062B67047002070475CF2FF1FD8F4FF1FB6
:101E3000013803280BD872B6074B53F8203043B152
:101E400000205B680130002BFBD162B67047002098
:101E500070471846F9E700BFB0F2FF1F30B472B602
:101E60002B4A13781D0706D52A4B196A002936D04C
:101E7000996A002941D053781C0706D5254B196C67
:101E800000293ED0996C002939D09378190705D5DF
:101E9000204B196E002936D0996E89B1D3781B0773
:101EA00007D51C4BD3F880207AB3D3F888201121B2
:101EB0003AB162B6184B00221A7030BC00F068BE0E
:101EC0000D21154C154D227843F8315003EBC10319
:101ED0000830013A5860227062B630BC7047042264
:101EE0000D4C0F4D217843F8325003EBC2030830FC
:101EF0004A1E5860227062B6EFE70521E1E709212A
:101F0000DFE70822ECE70C22EAE71022E8E700BF4F
:101F10009884000000E0FF1FD9F2FF1FC8004000B6
:101F200088004000431E032B1DD81B4A400140F08F
:101F3000100030B4104472B6184CE25C032A1BD86F
:101F4000DFE802F00212151703220D88E25410F0A8
:101F5000080F14BFC823882343EA054308310360F0
:101F6000416062B630BC704708300222EDE70522BE
:101F7000EBE708300422E8E7094A52F8230038B1B9
:101F8000084A52F82300416042F8231062B6E9E79C
:101F900042F82310034AF7E700E0FF1FE8F2FF1FB3
:101FA000B0F2FF1FC0F2FF1F2DE9F04FDFF80CB3B6
:101FB000DFF80CA387B044E0AB4F4FEA930807EB80
:101FC000C809013ED9F8042003F00803F6B2A2F1D3
:101FD000080003F0FF04002B40F0028157F838306E
:101FE0001B0C99B222F8081C002B00F0F0809F4BCC
:101FF00022F8064C42F8044C53F82620002A00F040
:10200000C5829B4D55F8263058609A4C45F82600FD
:1020100034F81630194424F8161000F099FD002801
:1020200000F0AD82944A954B19F0080F00F10800BA
:1020300018BF1346C9F8040047F8383008238BF856
:1020400000309BF80040E4B261071AD58C4B1B7836
:10205000A3B18C490A7802F0FF0322B1013BDBB245
:102060000B7003B900BE88490A7802F0FF032AB159
:10207000013BDBB20B70002B00F0578204238BF87E
:10208000003004F0080303F0FF02002B00F0CC80C6
:102090009AF80030DBB21E098ED19C08DFF8C89197
:1020A00059F8342009EBC401C2F38302013A4968AC
:1020B0000C2A00F28880DFE802F07C7C8686868627
:1020C00086864786868607000868704D4A68704F86
:1020D000704E286081B240F28160674B6A604FF0B9
:1020E000010E0022814249F834303A60C9F81020CC
:1020F000C9F8182086F800E05B4C00F2E380B1F5E7
:10210000D06F80F04683B1F5817F00F0FC8200F251
:102110008D82802900F07783822940F0FA82A98895
:1021200001F07F01042900F2F4825B485B4C8900D6
:102130000844227062700278930740F1588484F852
:1021400000E04FF0020E42E3514F3A6832B3544B75
:10215000504E5449188834780D784028864645F00A
:10216000020828BF4FF0400E002C84F001043470A8
:10217000CEEB00000CBF8824C82409EBC80680B24F
:1021800085F0010544EA0E447260188049F8384031
:1021900072440D70002800F045813A603B4B1A886C
:1021A000B2F5A06F0FD100219A7859703E4B1A708A
:1021B00009E0364A108842F22102904200F037814D
:1021C0002D4A49F83420394A0123137036E72A4A48
:1021D0002A4B19F0080F18BF134647F838302DE77F
:1021E00000F0D6FC324A334952F82630002B00F07A
:1021F000D18158688C5D42F8260003F10802C9F8C5
:102200000420032C05D8DFE804F02C022926022242
:102210008A551A8819F0080F0CBF8823C82343EA8F
:10222000024347F8383009E7E00700F181812106D1
:1022300000F1F281A20706D51F4A20491378022037
:10224000DBB213700870E30602D51C4B10221A7023
:1022500007B0BDE8F08F04228A55DAE705228A55D7
:10226000D7E703228A55D4E700E0FF1F5CF2FF1F87
:1022700008F2FF1FD8F4FF1FC8004000880040008C
:10228000E4F2FF1F6DF2FF1FECF2FF1FD0F2FF1F01
:1022900004F2FF1F6CF2FF1FC0200740DCF2FF1F9B
:1022A00018F2FF1FD8F2FF1F982007409420074024
:1022B000B0F2FF1FE8F2FF1F882007408020074090
:1022C0009020074042F22100814200F02A8100F272
:1022D000D880B1F5086F00F07682B1F5106F40F04C
:1022E0001882226AB349A8780870120600F13A836E
:1022F000D9F82820B049130600F10C83D9F8302012
:10230000AD49150600F10183D9F83820AA49140611
:1023100000F1F682D9F84020A749100600F14A835F
:10232000D9F84820A449120600F13F83D9F850207B
:10233000A149130600F13483D9F858209E491506A7
:1023400000F12983D9F860209B49140600F11E830F
:10235000D9F868209849100600F11383D9F8702045
:102360009549120600F10883D9F87820924913069E
:1023700000F1FD82D9F880208F49150600F13183E4
:10238000D9F888208C49140600F12583D9F89020CB
:102390008949100600F11983D9F898208649120658
:1023A00000F10D838548864A864901908648874D0D
:1023B000874C049700230596029580460F461646E3
:1023C0001D460394306828B1446800F0E1FB2046C4
:1023D000002CF9D100233360029B38681A46002391
:1023E00042F8253028B1446800F0D2FB2046002C8A
:1023F000F9D100223A60019A98F800301146002283
:1024000041F8042B039A0191023B4FF0000122F89E
:102410001510032B00F22B81DFE813F0700125016A
:1024200070012501BEF1400F18BF0022B5E6694AD0
:102430000D784878157050708D78C8789570D07088
:1024400010680D79157186284D79897955719171CA
:1024500000F09B816049614E0A78307882F0010576
:10246000002842F002020D700CBF8821C82149F8F3
:10247000321009EBC20280F001000021307051607F
:102480009EE642F22120814240F0CB81544B554CD4
:102490005549A8781D682560CDF804E00870002033
:1024A00002908046844604464B490D7845F0020E62
:1024B00009EBCE030393019B002B039B5C600CBFD5
:1024C0008824C82444EA080385F0010449F83E3012
:1024D00032700C70DFF8E0E0404BDFF8FC80002841
:1024E00040F01E81BCF1400F1BD144F0020C09EBFF
:1024F000CC03029CDFF8C0E05C60002A40F026813B
:10250000020442F088029DF804304EF83C20044456
:1025100033700D702346402803D10020334A3B60BE
:102520001080334A012313704DE600F019FCA5E535
:10253000214B2F4828491A614FF0020E80F800E025
:102540002C4F0A702C49196099602C4E2C4D2D4C43
:102550009A610D213970FF213170DFF8B8E02970E0
:102560002270294D294A8EF800109F27012406F871
:10257000047C5D600470DA6007B0BDE8F08F244A27
:1025800047F8380013780133137057E543F82600F5
:102590000E4D3AE58B5D032B00F2F08001A252F85C
:1025A00023F000BF3D2000003D2000006126000018
:1025B0005B260000E4F2FF1F00E0FF1FC0F2FF1FD8
:1025C0005CF2FF1FB0F2FF1FE8F2FF1F08F2FF1FCF
:1025D000D8F4FF1FE0F4FF1FD8F2FF1F6CF2FF1FBB
:1025E00000F2FF1FE8F4FF1FFCF2FF1F18F2FF1FAD
:1025F00094200740C0200740880040008820074002
:1026000080200740982007401CF2FF1F70F2FF1F38
:10261000D9F2FF1F8C200740C149C24B80220D20F8
:1026200008701A70A2077FF50EAE05E640F202327E
:10263000914240F0EE80A98801F07F01042968D81A
:102640006A88002A65D1B648CDF804E089000844BC
:10265000017841F00201017021E701238B55EDE47F
:1026600000238B55EAE44FF0010388F80030013570
:10267000042D06F1040607F1040708F101087FF4B0
:10268000A1AEA94CA94B2278A94D049F059E00211B
:1026900029701A70130700F105816278A549DFF8E7
:1026A000A0820A7010074FF00001C9F83010C9F875
:1026B000381000F1E080A049A2780A700021C9F822
:1026C0005010C9F858101107DFF8748200F1018129
:1026D000E2789A499A4C0A7000211207C9F87010E2
:1026E000C9F8781000F1B08033780193002183F0AD
:1026F0000102C9F89010C9F89810D0E64FF0000315
:1027000088F80030B3E7A98801F07F01042940F27E
:102710008D80834A0F2313708A4A0123137052E578
:1027200040287FF6E2AE44F002040EEBC401029EA4
:102730004E60BAB19DF80410834A19703346403890
:1027400088F8005040334EF83420E7E69DF8043016
:1027500033700204029B0D7042F0C80203444EF82D
:102760003C20D8E69DF804101970029B774A88F83F
:102770000050403840334EF83420CFE619F0080FAF
:102780000CBF022303238B5558E4714A0F211170AB
:1027900060E6704A5468002CBBD06888B5F804E045
:1027A00003E00C325468002CB3D013888342F8D174
:1027B00053887345F5D1000A03280CBF94F800E054
:1027C000B2F808E003E0644A644C12782270E888AA
:1027D000704580F03F8162490D784028844645F07D
:1027E000020E28BF4FF0400C04EB0C0309EBCE02A5
:1027F000029301235460CCEB00004FEA0C48002206
:102800000193C8245EE6554C4FF0020E22706270B0
:10281000DDE7B1F5A06F7FF47CAF012300220193C7
:102820003DE642F221329142F7D072E76A88002AEF
:102830007FF46FAF3A48CDF804E08900084401788E
:1028400021F0020101702AE600F082F9002800F070
:10285000EF8008303D4AC4F88400C4F8802000F0BE
:1028600077F9002800F0DE800830374AC9F88C007C
:10287000C9F8882038E700F06BF9002800F0C08024
:102880000830324AC8F84400C8F8402000F060F927
:10289000002800F0AF8008302B4AC9F84C00C9F876
:1028A000482008E700F054F9002800F0CD800830F7
:1028B000264AC9F82400C9F8202000F049F9002868
:1028C00000F0BC800830204AC9F82C00C9F8282044
:1028D000E3E600F03DF9002800F09E8008301B4A36
:1028E000C8F86400C8F8602000F032F9002800F051
:1028F0008D800830144AC9F86C00C9F86820E7E6F2
:10290000C86B083800F044F904E5486B083800F05B
:102910003FF9F9E4C86A083800F03AF9EEE400BF7C
:10292000C02007408020074098840000C420074052
:10293000D9F2FF1FC8200740CC200740D020074015
:1029400000E0FF1F94200740C800400088004000BE
:102950006DF2FF1F9C840000E4F2FF1FDCF2FF1FFA
:10296000D8F2FF1F606A083800F012F9C0E4C86F9F
:10297000083800F00DF9FDE4486F083800F008F958
:10298000F2E4C86E083800F003F9E7E4486E08384E
:1029900000F0FEF8DCE4C86D083800F0F9F8D1E486
:1029A000486D083800F0F4F8C6E4C86C083800F048
:1029B000EFF8BBE4486C083800F0EAF8B0E4D1F86E
:1029C0009C00083800F0E4F8ECE4D1F894000838F2
:1029D00000F0DEF8E0E4D1F88C00083800F0D8F818
:1029E000D4E4D1F88400083800F0D2F8C8E44FF0FD
:1029F000020EECE62A78C9F8480001322A705AE63D
:102A00002A78C8F8400001322A703FE72A78C9F8CE
:102A1000680001322A705BE62A78C8F8600001324B
:102A20002A7061E72A78C9F8880001322A705BE6CB
:102A30002A78C4F8800001322A7010E72A78C9F891
:102A4000280001322A7028E62A78C9F820000132CD
:102A50002A7032E7BEF1400FF44628BF4FF0400C19
:102A600004EB0C0302930123CCEB0E004FEA0C485D
:102A70000022019318E500BFF8B500F0D3FC294B04
:102A800029482A4C2A4F2B4DDFF8BCC0DFF8BCE0A8
:102A9000294E00221A605A609A60DA601A615A61FF
:102AA0009A61DA611A625A629A62DA621A635A6346
:102AB0009A63DA631A645A649A64DA641A655A6526
:102AC0009A65DA651A665A669A66DA661A675A6706
:102AD0009A67DA67C3F880200168C3F8842041F45C
:102AE00080210160C3F307212170C3F3074013491C
:102AF00038701B0E2B70FF238CF80030104D8EF8B1
:102B0000003010480B700123337084F86420702665
:102B10000824102207F82C3C2E70046081F8F8205D
:102B2000F8BD00BF00E0FF1F348004409C20074038
:102B3000B0200740B42007409420074010200740F1
:102B400023E400E004E100E0802007408820074003
:102B500072B60D480268B2FA82F30B2B10DC4FF00C
:102B60000041D94022EA0102026062B6074803EB45
:102B7000C303DB00C2180021C150104651607047EA
:102B800062B60020704700BF64E5FF1FF8E1FF1F39
:102B90000D4B0E4AC31AA2FB03231B090B2B0CD8A7
:102BA0000B4A127852B972B60A484FF000410268D7
:102BB00021FA03F31A43026062B67047064A12789C
:102BC000002AF0D0FFF74AB9F8E1FF1F398EE33849
:102BD000D9F2FF1F64E5FF1FE4F2FF1F38B50F4D68
:102BE000286878B143880288C118013393420C7A6F
:102BF00002D24380204638BDFFF7CAFF002320469B
:102C00002B6038BD064B1B782BB10320FFF7F2F881
:102C100028600028E6D14FF0FF3038BDF8F2FF1FE2
:102C2000E4F2FF1F044B054A1B6890881BB11A8809
:102C30005B88D31A18447047F8F2FF1FD8F4FF1FBF
:102C40002DE9F04FDFF8F89083B0012289F80020D9
:102C5000019169B3DFF8EC80364F019E8346D8F8C6
:102C60000000B0B3344D4488C4F14001B14228BFE4
:102C7000314604EB010E00221FFA8EFE2A70761AEE
:102C8000A0F802E000F1080251B1013C224459448D
:102C90001BF8014B02F8014F8B45F9D1B0F802E067
:102CA000BEF13F0F0BD8254A05211170002ED6D159
:102CB0000198002389F8003003B0BDE8F08F40226E
:102CC000028001460420FFF72DF90022C8F80020F9
:102CD000E9E73A782AB3184D47F209544FF0010A50
:102CE00007E0013C16D02A78A2B900F05DF83A78E6
:102CF000BAB10420FFF79CF80728F2D889F800A0A1
:102D0000FFF726FFC8F800000028ACD10C4B013CAF
:102D10001870E8D101234FF0FF302B7003B0BDE8ED
:102D2000F08F00234FF0FF3089F8003003B0BDE88A
:102D3000F08F00BFE4F2FF1FF4F2FF1FECF2FF1F61
:102D4000EDF2FF1FF0F2FF1F00B583B002AB0121CF
:102D500003F8010D1846FFF773FF03B05DF804FB9D
:102D600038B50E4B1B7873B90D4C216861B103F077
:102D7000FF054B880B800420FFF7D4F8256038BD91
:102D8000084B01221A7038BDFFF7E2FE0028F7D089
:102D90000146BDE838400420FFF7C4B8EDF2FF1F3C
:102DA000F0F2FF1FECF2FF1F38B5224C237803B17D
:102DB00038BD01232370FFF735FF70BB00F0B6F973
:102DC00040BB00F049FA10BB00F0B0FAE0B90023B4
:102DD0002370EFF30583002BEAD1EFF3108172B675
:102DE000154B1868E0B1154C2278CAB945691D60C9
:102DF00001232370C5B1AA6101B962B600254577E8
:102E0000836898472570D3E700F018F9DFE700F0F2
:102E100013F9D9E700F00EF9D3E700F045FBCDE751
:102E20000029C5D162B638BD054B1D600029E5D12A
:102E3000E3E700BFFDF2FF1F10F3FF1F14F3FF1FB6
:102E40000CF3FF1F10B4EFF3108272B6437F33B957
:102E5000017F012907D003290FD00123437702B94D
:102E600062B610BC7047124C2168A1B11149436190
:102E70000B68836108605861EFE70F4C216881B1EE
:102E80000E4943610B688361086058610C4B4FF039
:102E900080511960E1E7074B416181612060186052
:102EA000DBE7064B4161816120601860EEE700BFFF
:102EB00010F3FF1F0CF3FF1F00F3FF1F04F3FF1FAE
:102EC00004ED00E010B4047F4160022CC26002D027
:102ED00010BCFFF7B7BF836810BC184770B5EFF39D
:102EE000108272B60C4C206880B10C4E00254369EC
:102EF000236073B19D6102B962B6457783689847D4
:102F0000EFF3108272B620680028F0D102B962B6E1
:102F100070BD3360EFE700BF00F3FF1F04F3FF1F36
:102F2000FFF7DCBF184A30B41468002C27D00368C0
:102F300021688B420ED2CB1A00218460C1602360CD
:102F4000E06010600223037530BC704711688B424B
:102F5000144608D3A2685B1A0360002AF6D1826087
:102F6000C460A060EEE7D268C2608460E060C568BB
:102F7000CB1A0222A8602360027530BC70478460BF
:102F8000C4601060DEE700BF08F3FF1FF8B5224EF3
:102F900034682CB32368002B3AD1204F1D4604E03F
:102FA0003468ECB12368002B32D1A36803B1DD6033
:102FB00020693360036825751B68BB4221D1037FFC
:102FC0004560022BC46020D0FFF73CFF6368002BF4
:102FD000E6D023602046FFF7A5FF3468002CE1D13E
:102FE000EFF3108372B60E4A00211068116003B926
:102FF00062B628B18468FFF795FF20460028F9D112
:10300000F8BD224600219847E0E783689847DDE74E
:10301000013B2360E4E700BF08F3FF1FC52E00005B
:1030200018F3FF1F024A136801331360FFF7AEBFA6
:1030300000F2FF1F704700BF704700BF704700BF1E
:1030400010B43048304A314BE121602404701170D3
:103050001B782F49082B37D00A2B3BD00C2B3FD0A5
:103060002C4B3D20122208601A602B4B1B78ABB111
:103070002A4B01221A602A4B1B78012B14D9042BEE
:103080001AD9082B35D9102B264B94BF86228722BC
:103090001A60254B01221A7010BC70471F4A13603A
:1030A0001F4B1B78012BEAD81E4B80221A601E4B47
:1030B00001221A7010BC70471A4B84221A601A4BF6
:1030C00001221A7010BC7047124B012013220860B5
:1030D0001A60CAE70F4B3920132208601A60C4E750
:1030E00003F1804303F56C333520122208601A6027
:1030F000BBE70C4B85221A600B4B01221A7010BCE7
:10310000704700BF004007400140074068E5FF1FCF
:1031100008B003400CB003401DF3FF1F20B0034074
:1031200069E5FF1F24B003401CF3FF1F054A064B4F
:1031300010781B78C0B2DBB2984238BF4030C01A5A
:10314000704700BF24F3FF1F25F3FF1FF0B4384B77
:103150001A7912F0300F2CD072B6997D01F0FF026F
:1031600000293DD062B6334F334938780D78334E5D
:103170001C46C0B2EDB2431C402BE17928BF0023AE
:10318000AB4202F1FF32C9B21CBFF154184612F033
:10319000FF02F0D12A4B1B68C2B23A704BB1A84271
:1031A00036BFC5F14005401B40192728C4BF012286
:1031B0001A701F49CA78D2B2150616D452060DD518
:1031C0001B4B1B795B0609D51E4B1F491B68002250
:1031D0000A7003B11A70164B3C22DA70F0BC7047CB
:1031E0004022D9795A7462B6E3E70B791C06E5D51B
:1031F000164B174E1C783378E4B2DBB29C420ED0EB
:10320000144D01E0A3420AD00133402B28BF002314
:103210000879E85CC0B2C871087D0728F2D9DBB232
:10322000034933700B79180644BF7C23CB70C5E784
:1032300000A0064024F3FF1F25F3FF1F68F3FF1FC4
:1032400020F3FF1FACF3FF1FA8F3FF1FB0F3FF1F16
:10325000A9F3FF1F28F3FF1F054A064B10781B78C0
:10326000C0B2DBB2984238BF4030C01A704700BFCE
:10327000B1F3FF1FB2F3FF1F30B4234B1A7994064A
:103280000FD52249DA790B78214801333F2B00789A
:10329000C8BF00238342D2B203D01E4CD8B2E2543E
:1032A0000870194AD378DBB2180611D45A060DD526
:1032B000154B1B795B0609D5174B18491B68002273
:1032C0000A7003B11A70104B2C22DA7030BC7047B0
:1032D00011790906EAD5124912480C780178C9B269
:1032E0008C420DD04A1C272A84BF00210A460E4D6D
:1032F000054C98BFD1B2AA5CD2B2E2710170D5E799
:103300006C21D170D2E700BF00B00640B1F3FF1FBF
:10331000B2F3FF1FDCF3FF1F20F4FF1F1CF4FF1F9D
:1033200024F4FF1F1DF4FF1FB4F3FF1F054A064BD3
:1033300010781B78C0B2DBB2984238BF4030C01A58
:10334000704700BF2CF4FF1F2DF4FF1F30B42B4B30
:103350001A7994061FD52A48DA7903782949013366
:103360003F2B0978C8BF00238B42D2B203D0264C32
:10337000D9B2E2540170254A116861B1244A127829
:10338000D2B2934236BFC2F140029B1A9B18272B40
:10339000C4BF01230B70194AD378DBB2180611D4CD
:1033A0005A060DD5154B1B795B0609D5194B1A49E1
:1033B0001B6800220A7003B11A70104B2C22DA70BD
:1033C00030BC704711790906EAD5144910480C78C9
:1033D0000178C9B28C420DD04A1C272A84BF002133
:1033E0000A460F4D054C98BFD1B2AA5CD2B2E27129
:1033F0000170D5E76C21D170D2E700BF00C0064054
:103400002CF4FF1F2DF4FF1F58F4FF1F28F4FF1F9B
:1034100099F4FF1F9CF4FF1F98F4FF1FA0F4FF1FF7
:1034200030F4FF1F70B584B072B6194B194D1A48AD
:10343000702241260F2480211A702E701A460470C3
:10344000197013781B06FCD5144B186862B6144B20
:10345000144C984298BF00EB800001A998BF40002F
:103460000A22FEF76FFB01A92046002311F8012B69
:1034700001333AB10A2B20F8022FF7D1162323701B
:1034800004B070BD5B00DBB2237004B070BD00BF40
:10349000000002400700024006000240080002400F
:1034A0007F969800F8E5FF1F704700BF81F000414C
:1034B00002E000BF83F0004330B54FEA41044FEA19
:1034C000430594EA050F08BF90EA020F1FBF54EAB4
:1034D000000C55EA020C7FEA645C7FEA655C00F050
:1034E000E2804FEA5454D4EB5555B8BF6D420CDD21
:1034F0002C4480EA020281EA030382EA000083EAA4
:10350000010180EA020281EA0303362D88BF30BD43
:1035100011F0004F4FEA01314FF4801C4CEA113199
:1035200002D0404261EB410113F0004F4FEA0333F8
:103530004CEA133302D0524263EB430394EA050F83
:1035400000F0A780A4F10104D5F1200E0DDB02FAF2
:103550000EFC22FA05F2801841F1000103FA0EF286
:10356000801843FA05F359410EE0A5F120050EF14C
:10357000200E012A03FA0EFC28BF4CF0020C43FA7D
:1035800005F3C01851EBE37101F0004507D54FF08A
:10359000000EDCF1000C7EEB00006EEB0101B1F5DA
:1035A000801F1BD3B1F5001F0CD349085FEA300020
:1035B0004FEA3C0C04F101044FEA445212F5800F2B
:1035C00080F09A80BCF1004F08BF5FEA500C50F1C8
:1035D000000041EB045141EA050130BD5FEA4C0CAB
:1035E000404141EB010111F4801FA4F10104E9D134
:1035F00091F0000F04BF01460020B1FA81F308BF2B
:103600002033A3F10B03B3F120020CDA0C3208DDF6
:1036100002F1140CC2F10C0201FA0CF021FA02F1D1
:103620000CE002F11402D8BFC2F1200C01FA02F141
:1036300020FA0CFCDCBF41EA0C019040E41AA2BF66
:1036400001EB0451294330BD6FEA04041F3C1CDA2E
:103650000C340EDC04F11404C4F1200220FA04F04E
:1036600001FA02F340EA030021FA04F345EA0301F8
:1036700030BDC4F10C04C4F1200220FA02F001FABA
:1036800004F340EA0300294630BD21FA04F029463C
:1036900030BD94F0000F83F4801306BF81F48011D5
:1036A0000134013D4EE77FEA645C18BF7FEA655C48
:1036B00029D094EA050F08BF90EA020F05D054EA1A
:1036C000000C04BF1946104630BD91EA030F1EBF1F
:1036D0000021002030BD5FEA545C05D14000494123
:1036E00028BF41F0004130BD14F580043CBF01F516
:1036F000801130BD01F0004545F0FE4141F47001FC
:103700004FF0000030BD7FEA645C1ABF19461046D6
:103710007FEA655C1CBF0B46024650EA013406BFD7
:1037200052EA033591EA030F41F4002130BD00BF96
:1037300090F0000F04BF0021704730B54FF4806453
:1037400004F132044FF000054FF0000150E700BFD4
:1037500090F0000F04BF0021704730B54FF4806433
:1037600004F1320410F0004548BF40424FF0000120
:103770003EE700BF42004FEAE2014FEA31014FEA63
:1037800002701FBF12F07F4393F07F4F81F06051B2
:10379000704792F0000F14BF93F07F4F704730B521
:1037A0004FF4607401F0004521F0004120E700BFB4
:1037B00050EA010208BF704730B54FF000050AE03B
:1037C00050EA010208BF704730B511F0004502D53C
:1037D000404261EB41014FF4806404F132045FEA3E
:1037E000915C3FF4DCAE4FF003025FEADC0C18BFE3
:1037F00003325FEADC0C18BF033202EBDC02C2F1D9
:10380000200300FA03FC20FA02F001FA03FE40EA6A
:103810000E0021FA02F11444C1E600BF70B54FF06A
:10382000FF0C4CF4E06C1CEA11541DBF1CEA13554C
:1038300094EA0C0F95EA0C0F00F0DEF82C4481EAB4
:10384000030621EA4C5123EA4C5350EA013518BFD4
:1038500052EA033541F4801143F4801338D0A0FBC1
:1038600002CE4FF00005E1FB02E506F00042E0FB6E
:1038700003E54FF00006E1FB03569CF0000F18BF74
:103880004EF0010EA4F1FF04B6F5007F64F540741C
:1038900004D25FEA4E0E6D4146EB060642EAC621AF
:1038A00041EA55514FEAC52040EA5E504FEACE2E1C
:1038B000B4F1FD0C88BFBCF5E06F1ED8BEF1004F1F
:1038C00008BF5FEA500E50F1000041EB045170BD9B
:1038D00006F0004646EA010140EA020081EA0301DF
:1038E000B4EB5C04C2BFD4EB0C0541EA045170BDDB
:1038F00041F480114FF0000E013C00F3AB8014F155
:10390000360FDEBF002001F0004170BDC4F100049D
:10391000203C35DA0C341BDC04F11404C4F120051E
:1039200000FA05F320FA04F001FA05F240EA020079
:1039300001F0004221F0004110EBD37021FA04F6AF
:1039400042EB06015EEA430E08BF20EAD37070BD69
:10395000C4F10C04C4F1200500FA04F320FA05F0C8
:1039600001FA04F240EA020001F0004110EBD370CA
:1039700041F100015EEA430E08BF20EAD37070BD3A
:10398000C4F1200500FA05F24EEA020E20FA04F313
:1039900001FA05F243EA020321FA04F001F00041C2
:1039A00021FA04F220EA020000EBD3705EEA430E33
:1039B00008BF20EAD37070BD94F0000F0FD101F062
:1039C0000046400041EB010111F4801F08BF013C9B
:1039D000F7D041EA060195F0000F18BF704703F0D9
:1039E0000046520043EB030313F4801F08BF013D60
:1039F000F7D043EA0603704794EA0C0F0CEA13551C
:103A000018BF95EA0C0F0CD050EA410618BF52EAD5
:103A10004306D1D181EA030101F000414FF00000DB
:103A200070BD50EA410606BF1046194652EA4306E9
:103A300019D094EA0C0F02D150EA013613D195EA5D
:103A40000C0F05D152EA03361CBF104619460AD1A5
:103A500081EA030101F0004141F0FE4141F47001AF
:103A60004FF0000070BD41F0FE4141F4780170BD9F
:103A700070B54FF0FF0C4CF4E06C1CEA11541DBF04
:103A80001CEA135594EA0C0F95EA0C0F00F0A7F806
:103A9000A4EB050481EA030E52EA03354FEA013133
:103AA00000F088804FEA03334FF0805545EA131346
:103AB00043EA12634FEA022245EA111545EA10650E
:103AC0004FEA00260EF000419D4208BF964244F1A5
:103AD000FD0404F5407402D25B084FEA3202B61AC4
:103AE00065EB03055B084FEA32024FF480104FF498
:103AF000002CB6EB020E75EB030E22BFB61A75460C
:103B000040EA0C005B084FEA3202B6EB020E75EB9E
:103B1000030E22BFB61A754640EA5C005B084FEA06
:103B20003202B6EB020E75EB030E22BFB61A7546D3
:103B300040EA9C005B084FEA3202B6EB020E75EBDE
:103B4000030E22BFB61A754640EADC0055EA060E9F
:103B500018D04FEA051545EA16754FEA06164FEAE2
:103B6000C30343EA52734FEAC2025FEA1C1CC0D18E
:103B700011F4801F0BD141EA00014FF000004FF01B
:103B8000004CB6E711F4801F04BF01430020B4F1DC
:103B9000FD0C88BFBCF5E06F3FF6AFAEB5EB030C94
:103BA00004BFB6EB020C5FEA500C50F1000041EB91
:103BB000045170BD0EF0004E4EEA113114EB5C045E
:103BC000C2BFD4EB0C0541EA045170BD41F4801131
:103BD0004FF0000E013C90E645EA060E8DE60CEA39
:103BE000135594EA0C0F08BF95EA0C0F3FF43BAF56
:103BF00094EA0C0F0AD150EA01347FF434AF95EA0D
:103C00000C0F7FF425AF104619462CE795EA0C0FF0
:103C100006D152EA03353FF4FDAE1046194622E7BD
:103C200050EA410618BF52EA43067FF4C5AE50EA97
:103C300041047FF40DAF52EA43057FF4EBAE12E787
:103C40004FF0FF3C06E000BF4FF0010C02E000BF68
:103C50004FF0010C4DF804CD4FEA410C7FEA6C5C4B
:103C60004FEA430C18BF7FEA6C5C1BD001B050EAEE
:103C7000410C0CBF52EA430C91EA030F02BF90EAD9
:103C8000020F0020704710F1000F91EA030F58BF98
:103C9000994208BF90422CBFD8176FEAE37040F0FA
:103CA000010070474FEA410C7FEA6C5C02D150EA98
:103CB000013C07D14FEA430C7FEA6C5CD6D152EA53
:103CC000033CD3D05DF8040B704700BF8446104618
:103CD00062468C461946634600E000BF01B5FFF717
:103CE000B7FF002848BF10F1000F01BD4DF808EDE7
:103CF000FFF7F4FF0CBF012000205DF808FB00BFB8
:103D00004DF808EDFFF7EAFF34BF012000205DF811
:103D100008FB00BF4DF808EDFFF7E0FF94BF01205E
:103D200000205DF808FB00BF4DF808EDFFF7CEFF5F
:103D300094BF012000205DF808FB00BF4DF808ED9E
:103D4000FFF7C4FF34BF012000205DF808FB00BF6F
:103D50004FEA410C7FEA6C5C02D150EA013C0AD187
:103D60004FEA430C7FEA6C5C02D152EA033C02D179
:103D70004FF0000070474FF0010070470B460146BE
:103D8000184600F001B800BF13460A46014602205B
:103D900002F0D0BA014B1868704700BF38EAFF1F25
:103DA00070B50F4E0F4D761BB61018BF002405D00E
:103DB000013455F8043B9847A642F9D10A4E0B4D01
:103DC000761B04F0DDFCB61018BF002406D00134C9
:103DD00055F8043B9847A642F9D170BD70BD00BFAD
:103DE0008C8700008C870000988700008C8700007B
:103DF000D0F8EC00704700BF024B0146186800F095
:103E000003B800BF38EAFF1F2DE9F04F01F10B05A1
:103E1000162D83B0064640F29F8035F0070500F16D
:103E2000BF80A94200F2BC8000F06EFBB5F5FC7FBC
:103E3000C0F09C826B0A00F0BA80042B00F28381F0
:103E4000A80900F1390E4FEA4E033830C44F07EB92
:103E50008303A3F108015C68A14207D1ACE0002A0A
:103E600080F2AC80E468A14200F0A680636823F091
:103E700003035A1B0F2AF2DDB9493C6901F1080E10
:103E8000744500F0B381636823F003035A1B0F2AC3
:103E900000F39981002AC1F814E0C1F810E080F223
:103EA0009E80B3F5007F80F06781DB0803F1010C91
:103EB00001229B1002FA03F34A6851F83C80C4F8CF
:103EC000088001EBCC091A43A9F10803E3604A60BA
:103ED00041F83C40C8F80C40831001249C409442B7
:103EE00000F28A80144206D120F0030064001442DC
:103EF00000F10400FAD007EBC009CC468046DCF89C
:103F00000C108C4507D173E1002A80F28181C968C9
:103F10008C4500F06D814B6823F003035A1B0F2A78
:103F2000F2DD0C46D1F80CC054F8088F4B1945F05F
:103F300001054D6042F00101C8F80CC03046CCF8D4
:103F400008807B613B61C3F80CE0C3F808E059606E
:103F50009A5000F0DBFA1FE0102921D800F0D4FAC3
:103F60001025062302207E4F07EB8303A3F10802EE
:103F70005C68944200F045816368E168A56823F0BD
:103F80000303234430465A68E96042F001028D6021
:103F90005A6000F0BBFA0834204603B0BDE8F08F49
:103FA00000240C232046336003B0BDE8F08F80234B
:103FB0004FF0400E3F2049E770465DE72344E1683B
:103FC0005A68A56842F00102E96030468D605A6087
:103FD00000F09CFA0834204603B0BDE8F08F23447B
:103FE00030465A6842F001025A6000F08FFA0834F5
:103FF000204603B0BDE8F08FBC68636823F0030877
:10400000A84504D3C5EB08030F2B00F38C80554B58
:10401000DFF860911A68D9F8003001332A4404EBC4
:10402000080A00F0608102F580520F3222F47F62AC
:1040300022F00F0211463046019200F059FCB0F117
:10404000FF3F8346019A00F05881824500F2FC80D0
:10405000454B1968DA451144196000F05381D9F8CD
:104060000000DFF810E101301BBFCAEB0B0A51441E
:10407000CEF800B019601BF0070100F01781C1F104
:104080000800C1F58051834408315A44C2F30B0241
:10409000C2EB010949463046019300F029FC431C5C
:1040A000019B00F03F81CBEB00024A4442F0010249
:1040B0001968C7F808B04944BC42CBF8042019601D
:1040C000DFF8A49016D0B8F10F0F40F2FD806268BF
:1040D000A8F10C0323F00703E01802F001024FF0EF
:1040E000050E1A430F2B6260C0F804E0C0F808E028
:1040F00000F21C811D4BBC681A68914288BF196090
:104100001B4B1A689142626888BF196022F0030253
:104110009542A2EB050301D80F2B04DC304600F0DA
:10412000F5F9002438E7621943F0010345F0010571
:1041300065603046BA60536000F0E8F90834204604
:1041400003B0BDE8F08F142B71D9542B00F2A4807A
:10415000280B00F16F0E4FEA4E036E3076E600BF7B
:10416000A8EBFF1FACF4FF1FB0F4FF1FA8F4FF1F64
:10417000A4F4FF1FB4EFFF1F5A0A042A5ED9142AC1
:1041800000F2B38002F15C0149005B3207EB810C65
:1041900057F82110DFF8DC81ACF1080C8C4500F0F9
:1041A00088804A6822F00302934202D289688C45D3
:1041B000F7D1D1F80CC07A68C4F80CC0A160CCF873
:1041C0000840CC6088E6631942F0010745F001051C
:1041D000656030464B610B61C3F80CE0C3F808E042
:1041E0005F609A50083400F091F9D5E64A6873E6AA
:1041F00008F1010818F0030F0CF1080C7FF47FAEF2
:1042000030E0DC68A34208BF02303FF435AEB3E6CD
:104210000B440C465A68C96854F8085F42F0010222
:104220005A603046E9608D6000F070F9B4E603F141
:104230005C0E03F15B004FEA4E0307E69A0902F1B8
:10424000390149003832A1E7BC424A4B3FF400AF84
:104250009C68626822F003025AE759F808399945C8
:1042600040F0828010F0030F00F1FF30F5D17B6841
:1042700023EA04037B6064009C423FF6BDAE002C41
:104280003FF4BAAE1C4240467FF435AE64001C4297
:1042900000F10400FAD02EE6B3F5AA7F18D8E80B97
:1042A00000F1780E4FEA4E037730CFE54FF480519E
:1042B000EBE60121D8F80430921001FA02F21A4319
:1042C000C8F80420614677E70123CBF8043025E7DE
:1042D00040F25452934220D8A80C00F17D0E4FEAD0
:1042E0004E037C30B2E51032A4E6542A26D81A0BCD
:1042F00002F16F0149006E3248E7BC68626822F043
:10430000030205E7CAF30B0000287FF4A8AE42447D
:10431000BB6842F001025A60ECE6FE234FF07F0ECC
:104320007E2093E501224FF00009C1E604F1080167
:10433000304603F083F8D9F80010DBE6B2F5AA7F27
:1043400005D8DA0B02F17801490077321EE740F216
:1043500054518A4205D89A0C02F17D0149007C3201
:1043600014E7FE217E2211E77B6884E7E808431CFE
:104370005B00F8E5A8EBFF1F82B049B15AB16BB101
:1043800013780B601278101C18BF012002B0704720
:1043900001A9002AF3D1104602B070476FF0010066
:1043A000F4E700BF8842F0B50DD98B1898420AD2C5
:1043B0008118002A51D09A1A13F8014D01F8014DC5
:1043C0009342F9D1F0BD0F2A48D941EA00039B0777
:1043D00046D100F1100401F11003154653F8106C9A
:1043E00044F8106C53F80C6C44F80C6C53F8086CDF
:1043F00044F8086C103D53F8046C44F8046C0F2D1D
:1044000003F1100304F11004E8D8A2F1100323F023
:104410000F0302F00F0E1033BEF1030F19440344D3
:1044200021D91E1F0D467446043C55F8047B46F8FE
:10443000047F032CF8D8AEF1040424F00304043400
:104440002344214402F0030262B1013B0A4411F803
:10445000014B03F8014F8A42F9D1F0BD0346F3E75F
:104460000346F2E7F0BD7246EEE700BF70B4840782
:1044700046D0541E002A41D0CDB2034602E0621E4F
:10448000E4B3144603F8015B9A07F8D1032C2ED944
:10449000CDB245EA05250F2C45EA054519D903F1AA
:1044A00010022646103E0F2E42F8105C42F80C5CBB
:1044B00042F8085C42F8045C02F11002F2D8A4F160
:1044C000100222F00F0204F00F041032032C1344E8
:1044D0000DD91E462246043A032A46F8045BFAD850
:1044E000221F22F003020432134404F003042CB10F
:1044F000C9B21C4403F8011BA342FBD170BC704736
:1045000014460346C2E700BF704700BF704700BFB4
:104510002DE9F04F174683B0002900F0C1800E4608
:10452000814607F10B05FFF7EFFF56F804EC162D57
:104530002EF00304A6F1080840D810221546AF4219
:1045400041D8944275DAC94B996808EB0400884257
:10455000416800F0D98021F0010303445B68DB0768
:104560007DD51EF0010F35D039464846FFF74CFC8B
:104570000746E0B156F8043C23F001034344A0F1A0
:1045800008029A4200F04481221F242A00F231815D
:10459000132A00F2048103463246116819605168FB
:1045A000596092689A603146484602F047FF484693
:1045B000FFF7ACFF384603B0BDE8F08F25F00705E4
:1045C000002D2A46BBDA0C230020C9F8003003B0C6
:1045D000BDE8F08F56F8083CC3EB080ADAF804305F
:1045E00023F0030C04EB0C039342BDDB5746DAF8CF
:1045F0000C1057F8080F221F242AC160886000F2AF
:104600001781132A40F212813168CAF808107168C4
:10461000CAF80C101B2A00F22B8108360AF110028E
:104620003168116071685160B16891603E461C4606
:10463000D046631B0F2B1DD8D8F8043003F00103BC
:1046400023434444C8F80430636843F001036360C3
:104650004846FFF75BFF304603B0BDE8F08F21F01E
:1046600003012144914221DBC36882680C46D36078
:104670009A60DEE7D8F8042008EB050102F0010299
:10468000154343F001020B44C8F804504A605A68CD
:1046900042F0010208315A60484602F0CFFED7E7E7
:1046A000114603B0BDE8F04FFFF7AEBB1EF0010F9F
:1046B0007FF45AAF56F8083CC3EB080ADAF8043026
:1046C00023F0030C01EB0C0E96458BDBC36882686C
:1046D0005746D3609A6057F8081FDAF80C30CB6061
:1046E000221F242A996000F29980132A62D9336824
:1046F000CAF808307368CAF80C301B2A00F2A08090
:1047000008360AF1100356E021F0030BA34405F12B
:104710001000834559DA1EF0010F7FF425AF56F8DB
:10472000081CC1EB080ADAF8041021F0030CE3447A
:1047300058453FF757AF5746DAF80C1057F8080FAF
:10474000221F242AC160886000F2B480132A40F23C
:10475000A5803168CAF808107168CAF80C101B2AC5
:1047600000F2AF8008360AF11002316811607168FA
:104770005160B16891600AEB0501C5EB0B0242F094
:10478000010299604A60DAF8043003F001031D4326
:104790004846CAF80450FFF7B9FE38465CE733686C
:1047A0000360736843601B2A27D800F1080306F1F1
:1047B0000802F2E63B4632681A6072685A60B268D4
:1047C0009A603E467446D04633E708EB0501C5EBD8
:1047D0000B0B4BF0010299604A6056F8043C03F061
:1047E00001031D43484646F8045CFFF78FFE304640
:1047F00032E73146FFF7D6FDD5E6B3688360F3684C
:10480000C360242A28D000F1100306F11002C4E688
:1048100050F8043C23F003031C440AE731463846B1
:104820007446D046FFF7BEFD3E4602E73A46F7E63D
:10483000314638461C46D046FFF7B4FD3E46F8E602
:10484000B368CAF81030F368CAF81430242A1BD0B1
:1048500010360AF11803AEE73369036173694361E7
:1048600006F1180200F1180397E600BFA8EBFF1F3E
:10487000B168CAF81010F168CAF81410242A0FD0D1
:1048800010360AF11802CBE63369CAF8183073699A
:10489000CAF81C3018360AF120038CE73A4664E760
:1048A0003269CAF818207269CAF81C2018360AF151
:1048B0002002B5E6314638460193FFF773FD019BB0
:1048C00059E7B168CAF81010F168CAF81410242A20
:1048D00003D010360AF1180247E73269CAF81820E7
:1048E0007269CAF81C2018360AF120023DE700BFA1
:1048F00038B5074C0023054608462360FDF70CF940
:10490000431C00D038BD2368002BFBD02B6038BD82
:10491000ECF4FF1F0CB4F0B5244B00299DB01D68CA
:104920003EDB4FF402730C4602900690ADF8143053
:1049300023AE17D04C1E229A049433464FF6FF77CD
:1049400002A9284607940196ADF8167000F08CF97C
:10495000421C1BDB029B00221A701DB0BDE8F04018
:1049600002B0704733464FF6FF77229A049402A9AB
:10497000284607940196ADF8167000F075F9431CAF
:1049800007DB1DB0BDE8F04002B070478B232B6001
:10499000E0E78B232B601DB0BDE8F04002B070470C
:1049A0008B232B604FF0FF30EBE700BF38EAFF1F8F
:1049B000FFFFFFFFFFFFFFFFFFFFFFFFFFFFFFFF07
:1049C00090F800F06DE9024520F007016FF0000C4F
:1049D00010F0070491F820F040F049804FF00004F7
:1049E0006FF00700D1E9002391F840F000F10800D2
:1049F00082FA4CF2A4FA8CF283FA4CF3A2FA8CF30A
:104A00004BBBD1E9022382FA4CF200F10800A4FA70
:104A10008CF283FA4CF3A2FA8CF3E3B9D1E90423C4
:104A200082FA4CF200F10800A4FA8CF283FA4CF3FB
:104A3000A2FA8CF37BB9D1E9062301F1200182FAB5
:104A40004CF200F10800A4FA8CF283FA4CF3A2FABB
:104A50008CF3002BC6D0002A04BF04301A4612BAC9
:104A6000B2FA82F2FDE8024500EBD2007047D1E9CC
:104A7000002304F00305C4F100004FEAC50514F05B
:104A8000040F91F840F00CFA05F562EA05021CBF2C
:104A900063EA050362464FF00004A9E740EA010318
:104AA0009B0770B42BD1032A29D90C460346214613
:104AB00054F8046BA6F1013525EA060515F0803F90
:104AC00006D1043A032A43F8046B2146EFD8A2B179
:104AD0000C781C70013A013301313CB16AB111F814
:104AE000014B03F8014B013A002CF7D12AB11A44CB
:104AF000002103F8011B9A42FBD170BC70470346AA
:104B0000E5E700BF2DE9F84FDDF828900F46804615
:104B100016461D468B4600E0A3465C46484614F800
:104B200001ABFFF765F95044417801F0080101F04D
:104B3000FF0C0029F0D152462D2A61D02B2A04BF48
:104B40009BF801200BF10204002D43D0102D65D0FD
:104B5000A946BCF1000F0CBF6FF0004A4FF0004AAD
:104B60000021BAFBF9FE084609FB1EAA05E029D080
:104B700009FB0030012114F8012BA2F13003092BAD
:104B800005D9A2F14103192B0AD8A2F137039D429E
:104B90000EDD4A1CEFD08645E9D24FF0FF31EAE73F
:104BA000A2F16103192B03D8A2F157039D42F0DC57
:104BB0004B1C15D0BCF1000F10D14EB1E1B93760DC
:104BC000BDE8F88F9A45D3DA70464FF0FF31D2E74F
:104BD000BDE8F88F302A1AD00A25B9E74042ECE741
:104BE000BCF1000F4FF022030CBF6FF000404FF0FC
:104BF0000040C8F80030F6B1671E3760BDE8F88F96
:104C00000BF102049BF801204FF0010C9CE7237884
:104C100003F0DF03582B08D0082599E7302A97D1F5
:104C2000237803F0DF03582B92D14FF010096278FC
:104C30004D4602348DE7BDE8F88F00BF30B5084C13
:104C4000084B25686C6B83B0002C08BF1C46009491
:104C500013460A4601462846FFF754FF03B030BD0D
:104C600038EAFF1F3CEAFF1F2DE9F04FC1B00C46A8
:104C7000099115460E930A9002F0C8FC0368179339
:104C80001846FFF79DFEA38916901E0603D52369DB
:104C9000002B01F01A8100231A46129325932493C6
:104CA00019930B93DFF864A4149230AB23939946C5
:104CB0001592A84698F800304446EBB1252B02D156
:104CC0001AE0252B03D014F8013F002BF9D1C8EBD3
:104CD00004058DB1249B259AC9F8008001332A442C
:104CE000072BC9F804502592249300F3A68009F1FC
:104CF00008090B9B2B440B932378002B00F0A68014
:104D000000231A468DF86F3019460C9307934FF025
:104D1000FF3B637804F101085D4608F10108A3F147
:104D20002000582800F22584DFE810F088032304CF
:104D300023049003230423042304230423042304CF
:104D40009703A50323045D00E2002304FE00050190
:104D50000501050105010501050105010501050123
:104D6000230423042304230423042304230423040B
:104D70002304230415018102230481022304230454
:104D800023042304C60223042304CD0223042304A2
:104D9000230423042304F702230423042503230408
:104DA00023042304230423042304230423042304CB
:104DB000230466037903810281028102810379035E
:104DC00023042304D1032304DB03A3006400EE03C4
:104DD0002304F5032304AA0323042304BC030C982F
:104DE0000E9340420C90079B43F00403079398F8FE
:104DF000003092E70E98AB46002104688DF86F10E2
:104E0000071D0798302378228B458DF870304FF0BE
:104E100000058DF8712040F00203C0F2C78320F036
:104E2000800343F00203079354EA05030E9700F052
:104E300093830F461192B348CEE223AA09990A98A8
:104E400002F054FF48B90DF1C00952E7259B23B188
:104E50000A98099923AA02F049FF099B9B8913F03C
:104E6000400F0B9B18BF4FF0FF33184641B0BDE811
:104E7000F08F1193AB46002A41F03382079A12F06B
:104E8000200300F02E820E9F073727F0070300272C
:104E900003F10801BB450E91D3E900458DF86F7011
:104EA000C0F2798722F08003079354EA050300F0EB
:104EB000758330AEE20842EA4572E90804F0070360
:104EC0000D461446303354EA050206F8013DF1D18F
:104ED000079AD10740F18480302B00F08180302286
:104EE000731E06F8012C30AAD21A0D921E467AE0E3
:104EF00098F800302A2B08F1010401F0B981A3F1E0
:104F00003000092898BF002501F26C8114F8013B9C
:104F100005EB850500EB4505A3F130000928F5D91F
:104F200045EAE575A046FAE6079B43F08003079340
:104F300098F80030F1E6A3F1300000231C4618F881
:104F4000013B04EB840400EB4404A3F13000092886
:104F5000F5D90C94E3E61193AB46002A41F0AB81FE
:104F6000079B43F010030793079B980640F1308599
:104F70000E9F073727F00707D7E9002307F108013D
:104F80000E9114461D46002A73F10003C0F25B85A2
:104F9000BBF1000F9DF86F70C0F23885079B23F0BE
:104FA0008003079354EA050300F0DB81002D08BF5E
:104FB0000A2CC0F0DB8130AE204629460A220023AD
:104FC00002F06CFF303206F8012D204629460023FE
:104FD0000A2202F063FF04460D4654EA0503EBD1B2
:104FE00030AB9B1B0D930D9B5B45B8BF5B46089395
:104FF0000023139317B1089B01330893079B13F009
:1050000002030F9302D0089B02330893079B13F00F
:105010008403109340F0D7820C9B089A9D1A002DB0
:1050200040F3D182102D2599249A374F27DD189609
:1050300048461024B946099E2F460A9D04E0103FB9
:10504000102F00F1080016DD01322F4B2492103191
:10505000072A259180E81800F1DD23AA3146284669
:1050600002F044FE00287FF4F8AE103F102F25997F
:10507000249A30A8E8DC189E3D464F46814601320E
:105080006C18072A25942492C9F80070C9F80450B6
:1050900000F328849DF86F7009F1080977B1249B0B
:1050A000013301340DF16F010122072B2594249364
:1050B00089E8060000F3A08309F108090F9B6BB192
:1050C000249B013302341CA90222072B259424932C
:1050D00089E8060000F39C8309F10809109B802BE6
:1050E00000F0D5820D9BC3EB0B07002F39DD074A7B
:1050F000249B0F92102F28DD22464FF0100B0A9DA3
:10510000099C0AE0388500005885000004850000ED
:10511000103F102F09F1080916DD01331032072B5B
:105120002592249389E8000CF2DD23AA2146284623
:1051300002F0DCFD00287FF490AE103F102F259A7E
:10514000249B0DF1C009E8DC144601330F9A249327
:105150003C44072B259489E8840000F3418309F13E
:105160000809079BDA0500F13082249B0D99C9F8E4
:10517000006001330C44072B2594C9F804102493D4
:1051800000F3188309F10809079B59073FD50C9BC9
:10519000089A9D1A002D3ADD102D249BBC4F23DD6B
:1051A00022461026DDF828B0099C04E0103D102DA1
:1051B00009F1080917DD0133B54924931032072B93
:1051C000259289E84200F1DD23AA2146584602F0E3
:1051D0008DFD00287FF441AE103D102D259A249BB3
:1051E0000DF1C009E7DC144601332C44072B25944C
:1051F0002493C9F80070C9F8045008DD23AA09995E
:105200000A9802F073FD00287FF427AE259C0B9BC3
:105210000C9A08998A42ACBF9B185B180B93002C20
:1052200040F0D482002324930DF1C00942E511938C
:10523000AB46002A41F051800E9F073727F0070345
:1052400003F108020E921A6814925B681593159B7D
:10525000149D23F00044284621464FF0FF328D4B29
:10526000FEF776FD002840F0C284284621464FF024
:10527000FF32884BFEF74EFD002840F0B8841498AA
:10528000159900220023FEF73BFD002840F04F87D0
:105290009DF86F70804E814B079921F08001079136
:1052A000119903224FF0000B08924729D8BF1E46E0
:1052B0000D92CDF84CB09DE6079B43F00803079391
:1052C00098F8003029E51193AB46002A41F011808F
:1052D000079B43F010030793079A12F020037FF413
:1052E000D2AD079911F0100200F02C850E988DF8C0
:1052F0006F30BBF1000F046800F104074FF00005A8
:10530000C0F248850A4622F08002079254EA05025C
:105310000E9700F043811F46CBE51193AB46002A60
:1053200040F0E387079B43F010030793079A12F0BE
:10533000200300F032830E9F073727F00703002772
:1053400003F10801BB450E91D3E900458DF86F705C
:10535000C0F25C8322F08003079354EA05037FF4D4
:1053600025AEBBF1000F00F0FE80002440AE3034CB
:1053700006F8414D34E61193AB46002A40F097877A
:10538000079B47489D0640F197800E9F073727F0FF
:105390000703D3E9004503F108020E92079A12F0C1
:1053A000010700F0418254EA050300F005859DF8ED
:1053B00044208DF871200027079A8DF86F703023F4
:1053C000BB458DF8703042F00203C0F2B58622F082
:1053D000800343F00203079330AE230904F00F016A
:1053E00043EA05732A091C461546435C06F8013D4D
:1053F00054EA0503F1D1F3E50E9911930A688DF88B
:10540000982000230A461F468DF86F30043201238E
:105410000893BB4613970E920D9326AEEEE51193BB
:10542000AB46002A3FF4A0AD8DF86F109CE5079BBA
:1054300043F04003079398F800306EE498F800308A
:1054400000297FF46AAC0122202166E4079B43F027
:105450000103079398F800305FE40E9C23680C93D7
:1054600018460028234603F10403FFF6B8AC0E9358
:1054700098F8003051E498F8003001222B214CE4D8
:105480001193AB46002A3FF451AF8DF86F104DE7F2
:1054900058850000FFFFEF7F18850000148500008D
:1054A000248500001193AB46002A40F02A87079B11
:1054B00099489D063FF569AF079BDC0640F13584AE
:1054C0000E9A1346043314680E93002566E798F885
:1054D00000306C2B00F0E284079840F01000079039
:1054E0001BE4002A40F00987079B9B0640F10684D5
:1054F0000E9A0B991368CD170846043229460E926E
:10550000C3E90001FFF7D6BB079B43F020030793D5
:1055100098F8003001E40E9A1193166800248DF873
:105520006F40171D002E00F0CD85002DC0F21885AC
:105530002A462146304602F07BF8002800F02A86F1
:10554000831B0D93A34623EAE3730E970893CDF8CC
:105550004CB09DF86F704DE56F481192BBF1000F94
:1055600040F073815F464FF0000BCDF834B030AEA1
:1055700039E51193002A40F0AC86119A002A3FF4D5
:1055800065AC002301211F4608918DF898208DF805
:105590006F309B4613930D9126AE2FE5BBF1000FA4
:1055A00000F0038600270024002582E45A48079370
:1055B000119254EA05030E974FF000077FF40CAFE9
:1055C0000024002508E7259C68E5119B652B40F326
:1055D000A9801498159900220023FEF787FB002864
:1055E00000F03581249B4D4AC9F800200133013475
:1055F0000122072B25942493C9F8042000F3E883A3
:1056000009F108091D9B129A934203DB079BDB07F4
:105610007FF5BAAD249B1699179AC9F8002001337B
:105620000C44072B2594C9F80410249300F34084FC
:1056300009F10809129B5D1E002D7FF7A5AD384AC0
:10564000249B0F92102D40F3E68110260A9FDDF86F
:1056500024B005E009F10809103D102D40F3DB816D
:1056600001331034072B25942493C9F800A0C9F8FE
:105670000460EFDD23AA5946384602F037FB0028C4
:105680007FF4EBAB259C249B0DF1C009E4E70C9B58
:10569000089A9F1A002F7FF725AD214A249B0F926D
:1056A000102F2BDD4A462146B946102537460A9C65
:1056B000099E06E0A9F11009B9F1100F02F10802E4
:1056C00018DD01331031072B25912493C2F800A077
:1056D0005560EFDD23AA3146204602F007FB002883
:1056E0007FF4BBABA9F11009B9F1100F2599249BE8
:1056F00030AAE6DC3E460C464F46914601330F9AEF
:1057000024933C44072B259489E8840000F34582C8
:1057100009F10809E6E400BF38850000548500005F
:1057200004850000129B249D012B40F30882013563
:1057300001340123072D25942495C9F80060C9F888
:10574000043000F30D8209F10809169A179BC9F875
:10575000003001351444072D25942495C9F8042000
:1057600000F30E8209F1080900231498159900220C
:10577000FEF7BCFA129B002840F0C380013B0135C4
:1057800001361C44072D24952594C9F80060C9F8FA
:10579000043000F3F58009F10809199AC9F80420CA
:1057A000013514441FAB072D25942495C9F800300A
:1057B0007FF7E8AC23AA09990A9802F097FA002823
:1057C0007FF44BAB259C0DF1C009DDE423AA0999B8
:1057D0000A9802F08BFA00283FF424ADFFF73DBB96
:1057E00023AA09990A9802F081FA00287FF435ABC0
:1057F000259C0DF1C009B4E423AA09990A9802F086
:1058000075FA00287FF429AB259C0DF1C00955E4F9
:1058100023AA09990A9802F069FA00287FF41DABBF
:10582000259C0DF1C00959E4BBF1000F8DF86F7094
:10583000C0F2DA8222F08003079354EA05037FF472
:10584000CBADBBF1000F3FF48DAE0027B8E61D9D38
:10585000002D40F3CC82139B129A9342A8BF1346AB
:10586000002B1D460DDD249BC9F8006001332C443C
:10587000072B2594C9F80450249300F3A38309F15E
:105880000809139B002DA8BF5B1B002B1D4640F38E
:10589000F680BA4A249B0F92102D40F38082224654
:1058A0001027DDF828B0099C05E009F10809103D32
:1058B000102D40F3738201331032072B259224936D
:1058C000C9F800A0C9F80470EFDD23AA21465846A4
:1058D00002F00CFA00287FF4C0AA259A249B0DF14F
:1058E000C009E4E723AA09990A9802F0FFF9002801
:1058F0007FF4B3AA9DF86F70259C0DF1C009FFF7E6
:10590000CDBB5E1E002E7FF748AF9C4B0F93102E31
:105910002CDDCDF834801027B046DDF828B0099E84
:1059200006E0A8F11008B8F1100F09F108091ADD16
:1059300001351034072D25942495C9F800A0C9F825
:105940000470EEDD23AA3146584602F0CFF9002854
:105950007FF483AAA8F11008B8F1100F259C249DAC
:105960000DF1C009E4DC4646DDF834800F9B0135BB
:105970003444072D2594249589E848007FF70BAF20
:1059800023AA09990A9802F0B1F900287FF465AAC0
:10599000259C249D0DF1C009FFE6079911F0100226
:1059A00000F008810E988DF86F30BBF1000F04688D
:1059B00000F104074FF0000526DB0A4622F08002C2
:1059C000079254EA05020E971F467FF4EFAAC8E437
:1059D000079BD9062AD4079B5A0627D50E99B1F9F9
:1059E00000400431E51722462B460E91FFF7CBBA53
:1059F0000E998DF86F30BBF1000F0C6801F10407B0
:105A00004FF0000580F245820E971F4654EA0503C9
:105A10007FF4CCAAAAE401330F9A24932C44072BD9
:105A2000259489E824007FF7ADABC3E60E9A14688D
:105A300013460433E51722460E93002A2B4673F1D2
:105A40000003BFF6A5AA64424FF02D0765EB45059C
:105A5000BBF1000F8DF86F70FFF6A8AA079B23F02B
:105A600080030793FFF7A2BA23AA09990A9802F0C4
:105A70003DF900287FF4F1A9259C0DF1C009139A86
:105A80001D9B32441746129A934247DB079AD5076B
:105A900044D412990E44F51BCB1A9D42A8BF1D4653
:105AA000002D2E460DDD249AC9F8007001322C44D9
:105AB000072A2594C9F80450249200F3128309F1AF
:105AC0000809002EACBF9D1B1D46002D7FF75CAB67
:105AD0002A4A249B0F92102D9DDD10260A9FDDF887
